{
  "contractName": "Convertisseur",
  "abi": [
    {
      "anonymous": false,
      "inputs": [
        {
          "indexed": false,
          "internalType": "uint256",
          "name": "etherInput",
          "type": "uint256"
        },
        {
          "indexed": false,
          "internalType": "uint256",
          "name": "weiOutput",
          "type": "uint256"
        }
      ],
      "name": "EtherConverted",
      "type": "event"
    },
    {
      "anonymous": false,
      "inputs": [
        {
          "indexed": false,
          "internalType": "uint256",
          "name": "weiInput",
          "type": "uint256"
        },
        {
          "indexed": false,
          "internalType": "uint256",
          "name": "etherOutput",
          "type": "uint256"
        }
      ],
      "name": "WeiConverted",
      "type": "event"
    },
    {
      "inputs": [
        {
          "internalType": "uint256",
          "name": "montantEther",
          "type": "uint256"
        }
      ],
      "name": "etherEnWei",
      "outputs": [
        {
          "internalType": "uint256",
          "name": "",
          "type": "uint256"
        }
      ],
      "stateMutability": "nonpayable",
      "type": "function"
    },
    {
      "inputs": [
        {
          "internalType": "uint256",
          "name": "montantWei",
          "type": "uint256"
        }
      ],
      "name": "weiEnEther",
      "outputs": [
        {
          "internalType": "uint256",
          "name": "",
          "type": "uint256"
        }
      ],
      "stateMutability": "nonpayable",
      "type": "function"
    }
  ],
  "bytecode": "0x608060405234801561001057600080fd5b50610313806100206000396000f3fe608060405234801561001057600080fd5b50600436106100365760003560e01c806318b5d6e51461003b578063b5fcda341461006b575b600080fd5b6100556004803603810190610050919061018c565b61009b565b60405161006291906101c8565b60405180910390f35b6100856004803603810190610080919061018c565b6100f6565b60405161009291906101c8565b60405180910390f35b600080670de0b6b3a7640000836100b29190610241565b90507f74c49d3c10898d862a7287abf51dbf42e3dd3cafdb4098f4ecb18ac883244b9f83826040516100e5929190610272565b60405180910390a180915050919050565b600080670de0b6b3a76400008361010d919061029b565b90507f59ae030d0df18b7975ee7c272eeb0c59b66c8dbd4f609185d96c5f841d5a4f958382604051610140929190610272565b60405180910390a180915050919050565b600080fd5b6000819050919050565b61016981610156565b811461017457600080fd5b50565b60008135905061018681610160565b92915050565b6000602082840312156101a2576101a1610151565b5b60006101b084828501610177565b91505092915050565b6101c281610156565b82525050565b60006020820190506101dd60008301846101b9565b92915050565b7f4e487b7100000000000000000000000000000000000000000000000000000000600052601260045260246000fd5b7f4e487b7100000000000000000000000000000000000000000000000000000000600052601160045260246000fd5b600061024c82610156565b915061025783610156565b925082610267576102666101e3565b5b828204905092915050565b600060408201905061028760008301856101b9565b61029460208301846101b9565b9392505050565b60006102a682610156565b91506102b183610156565b92508282026102bf81610156565b915082820484148315176102d6576102d5610212565b5b509291505056fea2646970667358221220a6f2d58f05a7901816bf35991fdb91dcb2080887be05d1c9ad7e6551d5baf53564736f6c63430008130033",
  "immutableReferences": {},
  "source": "// SPDX-License-Identifier: MIT\npragma solidity ^0.8.0;\n\ncontract Convertisseur {\n\n    event EtherConverted(uint etherInput, uint weiOutput);\n    event WeiConverted(uint weiInput, uint etherOutput);\n\n    function etherEnWei(uint montantEther) public returns (uint) {\n        uint weiResult = montantEther * 1 ether;\n        emit EtherConverted(montantEther, weiResult);\n        return weiResult;\n    }\n\n    function weiEnEther(uint montantWei) public returns (uint) {\n        uint etherResult = montantWei / 1 ether;\n        emit WeiConverted(montantWei, etherResult);\n        return etherResult;\n    }\n}\n",
  "sourcePath": "/Users/macbook/Documents/GitHub/solidity0/contracts/Convertisseur.sol",
  "compiler": {
    "name": "solc",
    "version": "0.8.19+commit.7dd6d404.Emscripten.clang"
  },
  "schemaVersion": "3.4.16",
  "updatedAt": "2025-05-04T11:11:09.285Z",
  "networkType": "ethereum",
  "devdoc": {
    "kind": "dev",
    "methods": {},
    "version": 1
  },
  "userdoc": {
    "kind": "user",
    "methods": {},
    "version": 1
  }
}