{
  "contractName": "GestionChaines",
  "abi": [
    {
      "inputs": [],
      "name": "message",
      "outputs": [
        {
          "internalType": "string",
          "name": "",
          "type": "string"
        }
      ],
      "stateMutability": "view",
      "type": "function",
      "constant": true
    },
    {
      "inputs": [
        {
          "internalType": "string",
          "name": "_msg",
          "type": "string"
        }
      ],
      "name": "setMessage",
      "outputs": [],
      "stateMutability": "nonpayable",
      "type": "function"
    },
    {
      "inputs": [],
      "name": "getMessage",
      "outputs": [
        {
          "internalType": "string",
          "name": "",
          "type": "string"
        }
      ],
      "stateMutability": "view",
      "type": "function",
      "constant": true
    },
    {
      "inputs": [
        {
          "internalType": "string",
          "name": "a",
          "type": "string"
        },
        {
          "internalType": "string",
          "name": "b",
          "type": "string"
        }
      ],
      "name": "concatener",
      "outputs": [
        {
          "internalType": "string",
          "name": "",
          "type": "string"
        }
      ],
      "stateMutability": "pure",
      "type": "function",
      "constant": true
    },
    {
      "inputs": [
        {
          "internalType": "string",
          "name": "autre",
          "type": "string"
        }
      ],
      "name": "concatenerAvec",
      "outputs": [
        {
          "internalType": "string",
          "name": "",
          "type": "string"
        }
      ],
      "stateMutability": "view",
      "type": "function",
      "constant": true
    },
    {
      "inputs": [
        {
          "internalType": "string",
          "name": "s",
          "type": "string"
        }
      ],
      "name": "longueur",
      "outputs": [
        {
          "internalType": "uint256",
          "name": "",
          "type": "uint256"
        }
      ],
      "stateMutability": "pure",
      "type": "function",
      "constant": true
    },
    {
      "inputs": [
        {
          "internalType": "string",
          "name": "a",
          "type": "string"
        },
        {
          "internalType": "string",
          "name": "b",
          "type": "string"
        }
      ],
      "name": "comparer",
      "outputs": [
        {
          "internalType": "bool",
          "name": "",
          "type": "bool"
        }
      ],
      "stateMutability": "pure",
      "type": "function",
      "constant": true
    }
  ],
  "bytecode": "0x608060405234801561001057600080fd5b50610ae1806100206000396000f3fe608060405234801561001057600080fd5b506004361061007d5760003560e01c80634f7596871161005b5780634f759687146100fe5780639103ca331461012e578063ce6d41de1461015e578063e21f37ce1461017c5761007d565b806317646f8914610082578063368b8772146100b2578063413d4384146100ce575b600080fd5b61009c600480360381019061009791906104e3565b61019a565b6040516100a99190610576565b60405180910390f35b6100cc60048036038101906100c79190610591565b6101f3565b005b6100e860048036038101906100e39190610591565b610206565b6040516100f59190610659565b60405180910390f35b61011860048036038101906101139190610591565b610232565b6040516101259190610694565b60405180910390f35b610148600480360381019061014391906104e3565b61023d565b6040516101559190610659565b60405180910390f35b610166610269565b6040516101739190610659565b60405180910390f35b6101846102fb565b6040516101919190610659565b60405180910390f35b6000816040516020016101ad91906106eb565b60405160208183030381529060405280519060200120836040516020016101d491906106eb565b6040516020818303038152906040528051906020012014905092915050565b8060009081610202919061090e565b5050565b606060008260405160200161021c929190610a63565b6040516020818303038152906040529050919050565b600081519050919050565b60608282604051602001610252929190610a87565b604051602081830303815290604052905092915050565b60606000805461027890610731565b80601f01602080910402602001604051908101604052809291908181526020018280546102a490610731565b80156102f15780601f106102c6576101008083540402835291602001916102f1565b820191906000526020600020905b8154815290600101906020018083116102d457829003601f168201915b5050505050905090565b6000805461030890610731565b80601f016020809104026020016040519081016040528092919081815260200182805461033490610731565b80156103815780601f1061035657610100808354040283529160200191610381565b820191906000526020600020905b81548152906001019060200180831161036457829003601f168201915b505050505081565b6000604051905090565b600080fd5b600080fd5b600080fd5b600080fd5b6000601f19601f8301169050919050565b7f4e487b7100000000000000000000000000000000000000000000000000000000600052604160045260246000fd5b6103f0826103a7565b810181811067ffffffffffffffff8211171561040f5761040e6103b8565b5b80604052505050565b6000610422610389565b905061042e82826103e7565b919050565b600067ffffffffffffffff82111561044e5761044d6103b8565b5b610457826103a7565b9050602081019050919050565b82818337600083830152505050565b600061048661048184610433565b610418565b9050828152602081018484840111156104a2576104a16103a2565b5b6104ad848285610464565b509392505050565b600082601f8301126104ca576104c961039d565b5b81356104da848260208601610473565b91505092915050565b600080604083850312156104fa576104f9610393565b5b600083013567ffffffffffffffff81111561051857610517610398565b5b610524858286016104b5565b925050602083013567ffffffffffffffff81111561054557610544610398565b5b610551858286016104b5565b9150509250929050565b60008115159050919050565b6105708161055b565b82525050565b600060208201905061058b6000830184610567565b92915050565b6000602082840312156105a7576105a6610393565b5b600082013567ffffffffffffffff8111156105c5576105c4610398565b5b6105d1848285016104b5565b91505092915050565b600081519050919050565b600082825260208201905092915050565b60005b838110156106145780820151818401526020810190506105f9565b60008484015250505050565b600061062b826105da565b61063581856105e5565b93506106458185602086016105f6565b61064e816103a7565b840191505092915050565b600060208201905081810360008301526106738184610620565b905092915050565b6000819050919050565b61068e8161067b565b82525050565b60006020820190506106a96000830184610685565b92915050565b600081905092915050565b60006106c5826105da565b6106cf81856106af565b93506106df8185602086016105f6565b80840191505092915050565b60006106f782846106ba565b915081905092915050565b7f4e487b7100000000000000000000000000000000000000000000000000000000600052602260045260246000fd5b6000600282049050600182168061074957607f821691505b60208210810361075c5761075b610702565b5b50919050565b60008190508160005260206000209050919050565b60006020601f8301049050919050565b600082821b905092915050565b6000600883026107c47fffffffffffffffffffffffffffffffffffffffffffffffffffffffffffffffff82610787565b6107ce8683610787565b95508019841693508086168417925050509392505050565b6000819050919050565b600061080b6108066108018461067b565b6107e6565b61067b565b9050919050565b6000819050919050565b610825836107f0565b61083961083182610812565b848454610794565b825550505050565b600090565b61084e610841565b61085981848461081c565b505050565b5b8181101561087d57610872600082610846565b60018101905061085f565b5050565b601f8211156108c25761089381610762565b61089c84610777565b810160208510156108ab578190505b6108bf6108b785610777565b83018261085e565b50505b505050565b600082821c905092915050565b60006108e5600019846008026108c7565b1980831691505092915050565b60006108fe83836108d4565b9150826002028217905092915050565b610917826105da565b67ffffffffffffffff8111156109305761092f6103b8565b5b61093a8254610731565b610945828285610881565b600060209050601f8311600181146109785760008415610966578287015190505b61097085826108f2565b8655506109d8565b601f19841661098686610762565b60005b828110156109ae57848901518255600182019150602085019450602081019050610989565b868310156109cb57848901516109c7601f8916826108d4565b8355505b6001600288020188555050505b505050505050565b600081546109ed81610731565b6109f781866106af565b94506001821660008114610a125760018114610a2757610a5a565b60ff1983168652811515820286019350610a5a565b610a3085610762565b60005b83811015610a5257815481890152600182019150602081019050610a33565b838801955050505b50505092915050565b6000610a6f82856109e0565b9150610a7b82846106ba565b91508190509392505050565b6000610a9382856106ba565b9150610a9f82846106ba565b9150819050939250505056fea2646970667358221220b2167a5956671bfc91501712435f6f8672abc77e3c1cae4da526278ef26635c364736f6c63430008130033",
  "immutableReferences": {},
  "source": "// SPDX-License-Identifier: MIT\npragma solidity ^0.8.0;\n\ncontract GestionChaines {\n\n    string public message;\n\n    function setMessage(string memory _msg) public {\n        message = _msg;\n    }\n\n    function getMessage() public view returns (string memory) {\n        return message;\n    }\n\n    function concatener(string memory a, string memory b) public pure returns (string memory) {\n        return string.concat(a, b);\n    }\n\n    function concatenerAvec(string memory autre) public view returns (string memory) {\n        return string.concat(message, autre);\n    }\n\n    function longueur(string memory s) public pure returns (uint) {\n        return bytes(s).length;\n    }\n\n    function comparer(string memory a, string memory b) public pure returns (bool) {\n        return keccak256(abi.encodePacked(a)) == keccak256(abi.encodePacked(b));\n    }\n}\n",
  "sourcePath": "/Users/macbook/Documents/GitHub/solidity0/contracts/GestionChaines.sol",
  "compiler": {
    "name": "solc",
    "version": "0.8.19+commit.7dd6d404.Emscripten.clang"
  },
  "schemaVersion": "3.4.16",
  "updatedAt": "2025-05-04T11:11:09.417Z",
  "networkType": "ethereum",
  "devdoc": {
    "kind": "dev",
    "methods": {},
    "version": 1
  },
  "userdoc": {
    "kind": "user",
    "methods": {},
    "version": 1
  }
}