{
  "contractName": "PariteVerificateur",
  "abi": [
    {
      "inputs": [
        {
          "internalType": "int256",
          "name": "nombre",
          "type": "int256"
        }
      ],
      "name": "estPair",
      "outputs": [
        {
          "internalType": "bool",
          "name": "",
          "type": "bool"
        }
      ],
      "stateMutability": "pure",
      "type": "function",
      "constant": true
    },
    {
      "inputs": [
        {
          "internalType": "int256",
          "name": "nombre",
          "type": "int256"
        }
      ],
      "name": "parite",
      "outputs": [
        {
          "internalType": "string",
          "name": "",
          "type": "string"
        }
      ],
      "stateMutability": "pure",
      "type": "function",
      "constant": true
    }
  ],
  "bytecode": "0x608060405234801561001057600080fd5b50610328806100206000396000f3fe608060405234801561001057600080fd5b50600436106100365760003560e01c806341adf9e91461003b578063a50427041461006b575b600080fd5b6100556004803603810190610050919061017d565b61009b565b604051610062919061023a565b60405180910390f35b6100856004803603810190610080919061017d565b61012a565b6040516100929190610277565b60405180910390f35b606060006002836100ac91906102c1565b146100ec576040518060400160405280600681526020017f696d706169720000000000000000000000000000000000000000000000000000815250610123565b6040518060400160405280600481526020017f70616972000000000000000000000000000000000000000000000000000000008152505b9050919050565b60008060028361013a91906102c1565b149050919050565b600080fd5b6000819050919050565b61015a81610147565b811461016557600080fd5b50565b60008135905061017781610151565b92915050565b60006020828403121561019357610192610142565b5b60006101a184828501610168565b91505092915050565b600081519050919050565b600082825260208201905092915050565b60005b838110156101e45780820151818401526020810190506101c9565b60008484015250505050565b6000601f19601f8301169050919050565b600061020c826101aa565b61021681856101b5565b93506102268185602086016101c6565b61022f816101f0565b840191505092915050565b600060208201905081810360008301526102548184610201565b905092915050565b60008115159050919050565b6102718161025c565b82525050565b600060208201905061028c6000830184610268565b92915050565b7f4e487b7100000000000000000000000000000000000000000000000000000000600052601260045260246000fd5b60006102cc82610147565b91506102d783610147565b9250826102e7576102e6610292565b5b82820790509291505056fea26469706673582212200a3097c287a74b03ce607c23f06204ecff7d970f2823cd5cfdf3dbc81b74747c64736f6c63430008130033",
  "immutableReferences": {},
  "source": "// SPDX-License-Identifier: MIT\npragma solidity ^0.8.0;\n\ncontract PariteVerificateur {\n\n    // Retourne true si le nombre est pair, false sinon\n    function estPair(int nombre) public pure returns (bool) {\n        return nombre % 2 == 0;\n    }\n\n    // Retourne \"pair\" ou \"impair\" pour une lecture plus conviviale\n    function parite(int nombre) public pure returns (string memory) {\n        return nombre % 2 == 0 ? \"pair\" : \"impair\";\n    }\n}\n",
  "sourcePath": "/Users/macbook/Documents/GitHub/solidity0/contracts/PariteVerificateur.sol",
  "compiler": {
    "name": "solc",
    "version": "0.8.19+commit.7dd6d404.Emscripten.clang"
  },
  "schemaVersion": "3.4.16",
  "updatedAt": "2025-05-04T11:11:09.769Z",
  "networkType": "ethereum",
  "devdoc": {
    "kind": "dev",
    "methods": {},
    "version": 1
  },
  "userdoc": {
    "kind": "user",
    "methods": {},
    "version": 1
  }
}