{
  "contractName": "Payment",
  "abi": [
    {
      "inputs": [
        {
          "internalType": "address",
          "name": "_recipient",
          "type": "address"
        }
      ],
      "stateMutability": "nonpayable",
      "type": "constructor"
    },
    {
      "inputs": [],
      "name": "recipient",
      "outputs": [
        {
          "internalType": "address",
          "name": "",
          "type": "address"
        }
      ],
      "stateMutability": "view",
      "type": "function",
      "constant": true
    },
    {
      "inputs": [],
      "name": "receivePayment",
      "outputs": [],
      "stateMutability": "payable",
      "type": "function",
      "payable": true
    },
    {
      "inputs": [],
      "name": "withdraw",
      "outputs": [],
      "stateMutability": "nonpayable",
      "type": "function"
    },
    {
      "inputs": [],
      "name": "getBalance",
      "outputs": [
        {
          "internalType": "uint256",
          "name": "",
          "type": "uint256"
        }
      ],
      "stateMutability": "view",
      "type": "function",
      "constant": true
    }
  ],
  "bytecode": "0x608060405234801561001057600080fd5b506040516106213803806106218339818101604052810190610032919061014a565b600073ffffffffffffffffffffffffffffffffffffffff168173ffffffffffffffffffffffffffffffffffffffff16036100a1576040517f08c379a0000000000000000000000000000000000000000000000000000000008152600401610098906101d4565b60405180910390fd5b806000806101000a81548173ffffffffffffffffffffffffffffffffffffffff021916908373ffffffffffffffffffffffffffffffffffffffff160217905550506101f4565b600080fd5b600073ffffffffffffffffffffffffffffffffffffffff82169050919050565b6000610117826100ec565b9050919050565b6101278161010c565b811461013257600080fd5b50565b6000815190506101448161011e565b92915050565b6000602082840312156101605761015f6100e7565b5b600061016e84828501610135565b91505092915050565b600082825260208201905092915050565b7f4164726573736520696e76616c69646500000000000000000000000000000000600082015250565b60006101be601083610177565b91506101c982610188565b602082019050919050565b600060208201905081810360008301526101ed816101b1565b9050919050565b61041e806102036000396000f3fe60806040526004361061003f5760003560e01c806312065fe0146100445780633ccfd60b1461006f57806366d003ac14610086578063835c19f3146100b1575b600080fd5b34801561005057600080fd5b506100596100bb565b604051610066919061023c565b60405180910390f35b34801561007b57600080fd5b506100846100c3565b005b34801561009257600080fd5b5061009b6101ba565b6040516100a89190610298565b60405180910390f35b6100b96101de565b005b600047905090565b60008054906101000a900473ffffffffffffffffffffffffffffffffffffffff1673ffffffffffffffffffffffffffffffffffffffff163373ffffffffffffffffffffffffffffffffffffffff1614610151576040517f08c379a000000000000000000000000000000000000000000000000000000000815260040161014890610336565b60405180910390fd5b60008054906101000a900473ffffffffffffffffffffffffffffffffffffffff1673ffffffffffffffffffffffffffffffffffffffff166108fc479081150290604051600060405180830381858888f193505050501580156101b7573d6000803e3d6000fd5b50565b60008054906101000a900473ffffffffffffffffffffffffffffffffffffffff1681565b60003411610221576040517f08c379a0000000000000000000000000000000000000000000000000000000008152600401610218906103c8565b60405180910390fd5b565b6000819050919050565b61023681610223565b82525050565b6000602082019050610251600083018461022d565b92915050565b600073ffffffffffffffffffffffffffffffffffffffff82169050919050565b600061028282610257565b9050919050565b61029281610277565b82525050565b60006020820190506102ad6000830184610289565b92915050565b600082825260208201905092915050565b7f566f7573206e276574657320706173206175746f72697365206120726574697260008201527f6572000000000000000000000000000000000000000000000000000000000000602082015250565b60006103206022836102b3565b915061032b826102c4565b604082019050919050565b6000602082019050818103600083015261034f81610313565b9050919050565b7f4c65206d6f6e74616e7420646f6974206574726520737570657269657572206160008201527f2030000000000000000000000000000000000000000000000000000000000000602082015250565b60006103b26022836102b3565b91506103bd82610356565b604082019050919050565b600060208201905081810360008301526103e1816103a5565b905091905056fea26469706673582212202deb6d12e8fce010e4b8f99cd5c5d38285cae3efb52f86675bac9562ec2ab19f64736f6c63430008130033",
  "immutableReferences": {},
  "source": "// SPDX-License-Identifier: MIT\npragma solidity ^0.8.0;\n\ncontract Payment {\n    // Adresse du destinataire\n    address public recipient;\n\n    // Constructeur : initialise le destinataire\n    constructor(address _recipient) {\n        require(_recipient != address(0), \"Adresse invalide\");\n        recipient = _recipient;\n    }\n\n    // Fonction pour recevoir un paiement (doit tre payable)\n    function receivePayment() public payable {\n        require(msg.value > 0, \"Le montant doit etre superieur a 0\");\n    }\n\n    // Fonction pour retirer les fonds du contrat\n    function withdraw() public {\n        require(msg.sender == recipient, \"Vous n'etes pas autorise a retirer\");\n        payable(recipient).transfer(address(this).balance);\n    }\n\n    // Fonction pour consulter le solde du contrat (optionnel)\n    function getBalance() public view returns (uint) {\n        return address(this).balance;\n    }\n}\n",
  "sourcePath": "/Users/macbook/Documents/GitHub/solidity0/contracts/Payment.sol",
  "compiler": {
    "name": "solc",
    "version": "0.8.19+commit.7dd6d404.Emscripten.clang"
  },
  "schemaVersion": "3.4.16",
  "updatedAt": "2025-05-04T11:11:10.264Z",
  "networkType": "ethereum",
  "devdoc": {
    "kind": "dev",
    "methods": {},
    "version": 1
  },
  "userdoc": {
    "kind": "user",
    "methods": {},
    "version": 1
  }
}