{
  "contractName": "Rectangle",
  "abi": [
    {
      "inputs": [
        {
          "internalType": "uint256",
          "name": "_x",
          "type": "uint256"
        },
        {
          "internalType": "uint256",
          "name": "_y",
          "type": "uint256"
        },
        {
          "internalType": "uint256",
          "name": "_lo",
          "type": "uint256"
        },
        {
          "internalType": "uint256",
          "name": "_la",
          "type": "uint256"
        }
      ],
      "stateMutability": "nonpayable",
      "type": "constructor"
    },
    {
      "inputs": [],
      "name": "afficheXY",
      "outputs": [
        {
          "internalType": "uint256",
          "name": "",
          "type": "uint256"
        },
        {
          "internalType": "uint256",
          "name": "",
          "type": "uint256"
        }
      ],
      "stateMutability": "view",
      "type": "function",
      "constant": true
    },
    {
      "inputs": [],
      "name": "la",
      "outputs": [
        {
          "internalType": "uint256",
          "name": "",
          "type": "uint256"
        }
      ],
      "stateMutability": "view",
      "type": "function",
      "constant": true
    },
    {
      "inputs": [],
      "name": "lo",
      "outputs": [
        {
          "internalType": "uint256",
          "name": "",
          "type": "uint256"
        }
      ],
      "stateMutability": "view",
      "type": "function",
      "constant": true
    },
    {
      "inputs": [],
      "name": "x",
      "outputs": [
        {
          "internalType": "uint256",
          "name": "",
          "type": "uint256"
        }
      ],
      "stateMutability": "view",
      "type": "function",
      "constant": true
    },
    {
      "inputs": [],
      "name": "y",
      "outputs": [
        {
          "internalType": "uint256",
          "name": "",
          "type": "uint256"
        }
      ],
      "stateMutability": "view",
      "type": "function",
      "constant": true
    },
    {
      "inputs": [],
      "name": "surface",
      "outputs": [
        {
          "internalType": "uint256",
          "name": "",
          "type": "uint256"
        }
      ],
      "stateMutability": "view",
      "type": "function",
      "constant": true
    },
    {
      "inputs": [],
      "name": "afficheInfos",
      "outputs": [
        {
          "internalType": "string",
          "name": "",
          "type": "string"
        }
      ],
      "stateMutability": "pure",
      "type": "function",
      "constant": true
    },
    {
      "inputs": [],
      "name": "afficheLoLa",
      "outputs": [
        {
          "internalType": "uint256",
          "name": "",
          "type": "uint256"
        },
        {
          "internalType": "uint256",
          "name": "",
          "type": "uint256"
        }
      ],
      "stateMutability": "view",
      "type": "function",
      "constant": true
    }
  ],
  "bytecode": "0x608060405234801561001057600080fd5b506040516104cf3803806104cf83398181016040528101906100329190610096565b8383816000819055508060018190555050508160028190555080600381905550505050506100fd565b600080fd5b6000819050919050565b61007381610060565b811461007e57600080fd5b50565b6000815190506100908161006a565b92915050565b600080600080608085870312156100b0576100af61005b565b5b60006100be87828801610081565b94505060206100cf87828801610081565b93505060406100e087828801610081565b92505060606100f187828801610081565b91505092959194509250565b6103c38061010c6000396000f3fe608060405234801561001057600080fd5b50600436106100885760003560e01c806390c33c3f1161005b57806390c33c3f14610106578063a56dfe4a14610124578063cd514e4014610142578063cfa8d7a41461016157610088565b80630c55699c1461008d5780630e94ba83146100ab5780637780c14f146100c957806383a443a6146100e7575b600080fd5b61009561017f565b6040516100a29190610226565b60405180910390f35b6100b3610185565b6040516100c09190610226565b60405180910390f35b6100d161019c565b6040516100de9190610226565b60405180910390f35b6100ef6101a2565b6040516100fd929190610241565b60405180910390f35b61010e6101b3565b60405161011b9190610226565b60405180910390f35b61012c6101b9565b6040516101399190610226565b60405180910390f35b61014a6101bf565b604051610158929190610241565b60405180910390f35b6101696101d0565b60405161017691906102fa565b60405180910390f35b60005481565b6000600354600254610197919061034b565b905090565b60025481565b600080600254600354915091509091565b60035481565b60015481565b600080600054600154915091509091565b60606040518060400160405280601181526020017f4a6520737569732052656374616e676c65000000000000000000000000000000815250905090565b6000819050919050565b6102208161020d565b82525050565b600060208201905061023b6000830184610217565b92915050565b60006040820190506102566000830185610217565b6102636020830184610217565b9392505050565b600081519050919050565b600082825260208201905092915050565b60005b838110156102a4578082015181840152602081019050610289565b60008484015250505050565b6000601f19601f8301169050919050565b60006102cc8261026a565b6102d68185610275565b93506102e6818560208601610286565b6102ef816102b0565b840191505092915050565b6000602082019050818103600083015261031481846102c1565b905092915050565b7f4e487b7100000000000000000000000000000000000000000000000000000000600052601160045260246000fd5b60006103568261020d565b91506103618361020d565b925082820261036f8161020d565b915082820484148315176103865761038561031c565b5b509291505056fea2646970667358221220bc0cb4d5b7cf354d236f3d8f2a49368e128b6004eed14988f02e8f561f029da664736f6c63430008130033",
  "immutableReferences": {},
  "source": "// SPDX-License-Identifier: MIT\npragma solidity ^0.8.0;\n\nimport \"./Forme.sol\";\n\ncontract Rectangle is Forme {\n    uint public lo;\n    uint public la;\n\n    constructor(uint _x, uint _y, uint _lo, uint _la) Forme(_x, _y) {\n        lo = _lo;\n        la = _la;\n    }\n\n    function surface() public view override returns (uint) {\n        return lo * la;\n    }\n\n    function afficheInfos() public pure override returns (string memory) {\n        return \"Je suis Rectangle\";\n    }\n\n    function afficheLoLa() public view returns (uint, uint) {\n        return (lo, la);\n    }\n}\n",
  "sourcePath": "/Users/macbook/Documents/GitHub/solidity0/contracts/Rectangle.sol",
  "compiler": {
    "name": "solc",
    "version": "0.8.19+commit.7dd6d404.Emscripten.clang"
  },
  "schemaVersion": "3.4.16",
  "updatedAt": "2025-05-04T11:11:10.141Z",
  "networkType": "ethereum",
  "devdoc": {
    "kind": "dev",
    "methods": {},
    "version": 1
  },
  "userdoc": {
    "kind": "user",
    "methods": {},
    "version": 1
  }
}