{
  "contractName": "Somme",
  "abi": [
    {
      "inputs": [],
      "stateMutability": "nonpayable",
      "type": "constructor"
    },
    {
      "inputs": [],
      "name": "number1",
      "outputs": [
        {
          "internalType": "uint256",
          "name": "",
          "type": "uint256"
        }
      ],
      "stateMutability": "view",
      "type": "function",
      "constant": true
    },
    {
      "inputs": [],
      "name": "number2",
      "outputs": [
        {
          "internalType": "uint256",
          "name": "",
          "type": "uint256"
        }
      ],
      "stateMutability": "view",
      "type": "function",
      "constant": true
    },
    {
      "inputs": [],
      "name": "somme",
      "outputs": [
        {
          "internalType": "uint256",
          "name": "",
          "type": "uint256"
        }
      ],
      "stateMutability": "view",
      "type": "function",
      "constant": true
    },
    {
      "inputs": [],
      "name": "addition1",
      "outputs": [
        {
          "internalType": "uint256",
          "name": "",
          "type": "uint256"
        }
      ],
      "stateMutability": "view",
      "type": "function",
      "constant": true
    },
    {
      "inputs": [
        {
          "internalType": "uint256",
          "name": "a",
          "type": "uint256"
        },
        {
          "internalType": "uint256",
          "name": "b",
          "type": "uint256"
        }
      ],
      "name": "addition2",
      "outputs": [
        {
          "internalType": "uint256",
          "name": "",
          "type": "uint256"
        }
      ],
      "stateMutability": "nonpayable",
      "type": "function"
    },
    {
      "inputs": [],
      "name": "getValue",
      "outputs": [
        {
          "internalType": "uint256",
          "name": "",
          "type": "uint256"
        }
      ],
      "stateMutability": "view",
      "type": "function",
      "constant": true
    }
  ],
  "bytecode": "0x608060405234801561001057600080fd5b50600a600081905550602c6001819055506102b8806100306000396000f3fe608060405234801561001057600080fd5b50600436106100625760003560e01c806320965255146100675780634d3e46e4146100855780635ccb6b86146100a357806390c52443146100c1578063c223a39e146100df578063f1d16438146100fd575b600080fd5b61006f61012d565b60405161007c9190610193565b60405180910390f35b61008d610137565b60405161009a9190610193565b60405180910390f35b6100ab61014e565b6040516100b89190610193565b60405180910390f35b6100c9610154565b6040516100d69190610193565b60405180910390f35b6100e761015a565b6040516100f49190610193565b60405180910390f35b610117600480360381019061011291906101df565b610160565b6040516101249190610193565b60405180910390f35b6000600254905090565b6000600154600054610149919061024e565b905090565b60025481565b60015481565b60005481565b6000818361016e919061024e565b60028190555092915050565b6000819050919050565b61018d8161017a565b82525050565b60006020820190506101a86000830184610184565b92915050565b600080fd5b6101bc8161017a565b81146101c757600080fd5b50565b6000813590506101d9816101b3565b92915050565b600080604083850312156101f6576101f56101ae565b5b6000610204858286016101ca565b9250506020610215858286016101ca565b9150509250929050565b7f4e487b7100000000000000000000000000000000000000000000000000000000600052601160045260246000fd5b60006102598261017a565b91506102648361017a565b925082820190508082111561027c5761027b61021f565b5b9291505056fea2646970667358221220cfadf0cd39cebf3c73085dfd47e116ee61607c4e95440e6593a4344ecea9907c64736f6c63430008130033",
  "immutableReferences": {},
  "source": "// SPDX-License-Identifier: MIT\npragma solidity ^0.8.0;\n\ncontract Somme {\n  uint public number1;\n  uint public number2;\n  uint public somme;\n\n\n\n  constructor() {\n    number1 = 10;\n    number2 = 44;\n  }\n\n  function addition1() public view returns (uint){\n    return number1 + number2;\n  }\n\n  function addition2(uint a, uint b) public returns (uint){\n      somme = a+b;\n  }\n\n  function getValue() public view returns (uint){\n    return somme;\n  }\n}\n",
  "sourcePath": "/Users/macbook/Documents/GitHub/solidity0/contracts/Somme.sol",
  "compiler": {
    "name": "solc",
    "version": "0.8.19+commit.7dd6d404.Emscripten.clang"
  },
  "schemaVersion": "3.4.16",
  "updatedAt": "2025-05-04T11:11:09.161Z",
  "networkType": "ethereum",
  "devdoc": {
    "kind": "dev",
    "methods": {},
    "version": 1
  },
  "userdoc": {
    "kind": "user",
    "methods": {},
    "version": 1
  }
}