{
  "contractName": "SommeNombres",
  "abi": [
    {
      "inputs": [
        {
          "internalType": "uint256[]",
          "name": "_nombres",
          "type": "uint256[]"
        }
      ],
      "stateMutability": "nonpayable",
      "type": "constructor"
    },
    {
      "inputs": [
        {
          "internalType": "uint256",
          "name": "",
          "type": "uint256"
        }
      ],
      "name": "nombres",
      "outputs": [
        {
          "internalType": "uint256",
          "name": "",
          "type": "uint256"
        }
      ],
      "stateMutability": "view",
      "type": "function",
      "constant": true
    },
    {
      "inputs": [
        {
          "internalType": "uint256",
          "name": "_nombre",
          "type": "uint256"
        }
      ],
      "name": "ajouterNombre",
      "outputs": [],
      "stateMutability": "nonpayable",
      "type": "function"
    },
    {
      "inputs": [
        {
          "internalType": "uint256",
          "name": "index",
          "type": "uint256"
        }
      ],
      "name": "getElement",
      "outputs": [
        {
          "internalType": "uint256",
          "name": "",
          "type": "uint256"
        }
      ],
      "stateMutability": "view",
      "type": "function",
      "constant": true
    },
    {
      "inputs": [],
      "name": "afficheTableau",
      "outputs": [
        {
          "internalType": "uint256[]",
          "name": "",
          "type": "uint256[]"
        }
      ],
      "stateMutability": "view",
      "type": "function",
      "constant": true
    },
    {
      "inputs": [],
      "name": "calculerSomme",
      "outputs": [
        {
          "internalType": "uint256",
          "name": "",
          "type": "uint256"
        }
      ],
      "stateMutability": "view",
      "type": "function",
      "constant": true
    }
  ],
  "bytecode": "0x60806040523480156200001157600080fd5b506040516200089a3803806200089a83398181016040528101906200003791906200028c565b80600090805190602001906200004f92919062000057565b5050620002dd565b82805482825590600052602060002090810192821562000096579160200282015b828111156200009557825182559160200191906001019062000078565b5b509050620000a59190620000a9565b5090565b5b80821115620000c4576000816000905550600101620000aa565b5090565b6000604051905090565b600080fd5b600080fd5b600080fd5b6000601f19601f8301169050919050565b7f4e487b7100000000000000000000000000000000000000000000000000000000600052604160045260246000fd5b6200012c82620000e1565b810181811067ffffffffffffffff821117156200014e576200014d620000f2565b5b80604052505050565b600062000163620000c8565b905062000171828262000121565b919050565b600067ffffffffffffffff821115620001945762000193620000f2565b5b602082029050602081019050919050565b600080fd5b6000819050919050565b620001bf81620001aa565b8114620001cb57600080fd5b50565b600081519050620001df81620001b4565b92915050565b6000620001fc620001f68462000176565b62000157565b90508083825260208201905060208402830185811115620002225762000221620001a5565b5b835b818110156200024f57806200023a8882620001ce565b84526020840193505060208101905062000224565b5050509392505050565b600082601f830112620002715762000270620000dc565b5b815162000283848260208601620001e5565b91505092915050565b600060208284031215620002a557620002a4620000d2565b5b600082015167ffffffffffffffff811115620002c657620002c5620000d7565b5b620002d48482850162000259565b91505092915050565b6105ad80620002ed6000396000f3fe608060405234801561001057600080fd5b50600436106100575760003560e01c80631f4440b01461005c5780633a7d22bc1461007a5780637692fb5f146100aa578063bd92c667146100da578063e66df334146100f6575b600080fd5b610064610114565b6040516100719190610350565b60405180910390f35b610094600480360381019061008f91906103a3565b61016c565b6040516100a191906103df565b60405180910390f35b6100c460048036038101906100bf91906103a3565b6101da565b6040516100d191906103df565b60405180910390f35b6100f460048036038101906100ef91906103a3565b6101fe565b005b6100fe61022a565b60405161010b91906103df565b60405180910390f35b6060600080548060200260200160405190810160405280929190818152602001828054801561016257602002820191906000526020600020905b81548152602001906001019080831161014e575b5050505050905090565b6000808054905082106101b4576040517f08c379a00000000000000000000000000000000000000000000000000000000081526004016101ab9061047d565b60405180910390fd5b600082815481106101c8576101c761049d565b5b90600052602060002001549050919050565b600081815481106101ea57600080fd5b906000526020600020016000915090505481565b600081908060018154018082558091505060019003906000526020600020016000909190919091505550565b6000806000905060005b60008054905081101561028057600081815481106102555761025461049d565b5b90600052602060002001548261026b91906104fb565b915080806102789061052f565b915050610234565b508091505090565b600081519050919050565b600082825260208201905092915050565b6000819050602082019050919050565b6000819050919050565b6102c7816102b4565b82525050565b60006102d983836102be565b60208301905092915050565b6000602082019050919050565b60006102fd82610288565b6103078185610293565b9350610312836102a4565b8060005b8381101561034357815161032a88826102cd565b9750610335836102e5565b925050600181019050610316565b5085935050505092915050565b6000602082019050818103600083015261036a81846102f2565b905092915050565b600080fd5b610380816102b4565b811461038b57600080fd5b50565b60008135905061039d81610377565b92915050565b6000602082840312156103b9576103b8610372565b5b60006103c78482850161038e565b91505092915050565b6103d9816102b4565b82525050565b60006020820190506103f460008301846103d0565b92915050565b600082825260208201905092915050565b7f4c27696e64696365206e27657869737465207061732064616e73206c6520746160008201527f626c6561752e0000000000000000000000000000000000000000000000000000602082015250565b60006104676026836103fa565b91506104728261040b565b604082019050919050565b600060208201905081810360008301526104968161045a565b9050919050565b7f4e487b7100000000000000000000000000000000000000000000000000000000600052603260045260246000fd5b7f4e487b7100000000000000000000000000000000000000000000000000000000600052601160045260246000fd5b6000610506826102b4565b9150610511836102b4565b9250828201905080821115610529576105286104cc565b5b92915050565b600061053a826102b4565b91507fffffffffffffffffffffffffffffffffffffffffffffffffffffffffffffffff820361056c5761056b6104cc565b5b60018201905091905056fea2646970667358221220cebe5d355cfd6d7e84579ade523511cd9c4325e65e0e6ac4f27068801929089764736f6c63430008130033",
  "immutableReferences": {},
  "source": "// SPDX-License-Identifier: MIT\npragma solidity ^0.8.0;\n\ncontract SommeNombres {\n\n    // Tableau dynamique pour stocker les nombres\n    uint[] public nombres;\n\n    // Constructeur pour initialiser le tableau avec des nombres\n    constructor(uint[] memory _nombres) {\n        nombres = _nombres;\n    }\n\n    // Fonction pour ajouter un nombre au tableau\n    function ajouterNombre(uint _nombre) public {\n        nombres.push(_nombre);\n    }\n\n    // Fonction pour obtenir l'lment  un indice donn\n    function getElement(uint index) public view returns (uint) {\n        require(index < nombres.length, \"L'indice n'existe pas dans le tableau.\");\n        return nombres[index];\n    }\n\n    // Fonction pour afficher tout le tableau\n    function afficheTableau() public view returns (uint[] memory) {\n        return nombres;\n    }\n\n    // Fonction pour calculer la somme des nombres dans le tableau\n    function calculerSomme() public view returns (uint) {\n        uint somme = 0;\n        for (uint i = 0; i < nombres.length; i++) {\n            somme += nombres[i];\n        }\n        return somme;\n    }\n}\n",
  "sourcePath": "/Users/macbook/Documents/GitHub/solidity0/contracts/SommeNombres.sol",
  "compiler": {
    "name": "solc",
    "version": "0.8.19+commit.7dd6d404.Emscripten.clang"
  },
  "schemaVersion": "3.4.16",
  "updatedAt": "2025-05-04T11:11:10.014Z",
  "networkType": "ethereum",
  "devdoc": {
    "kind": "dev",
    "methods": {},
    "version": 1
  },
  "userdoc": {
    "kind": "user",
    "methods": {},
    "version": 1
  }
}